:020000040800F2
:10000000005000203D300008B52D0008C12D00082B
:10001000C72D0008CD2D0008D32D000800000000DA
:10002000000000000000000000000000D92D0008C2
:10003000E52D000800000000F12D0008FD2D00084E
:1000400085300008853000088530000885300008BC
:1000500085300008853000088530000885300008AC
:10006000853000088530000885300008853000089C
:10007000092E00088530000885300008853000080A
:10008000853000088530000885300008853000087C
:10009000853000088530000885300008853000086C
:1000A000853000088530000885300008853000085C
:1000B000853000088530000885300008853000084C
:1000C000853000088530000885300008853000083C
:1000D000853000081D2E0008853000088530000896
:1000E00085300008853000088530000800000000D9
:1000F0000000000000000000000000000000000000
:0C01000000000000000000005FF808F1A3
:10010C0010B5054C237833B9044B13B10448AFF345
:10011C0000800123237010BD0C00002000000000A3
:10012C00E030000808B5034B1BB103490348AFF39B
:10013C00008008BD0000000010000020E030000826
:10014C0080B500AF084B1B68074A43F010031360DF
:10015C00032000F01FF9002000F008F802F0F0FC7A
:10016C000023184680BD00BF0020024080B582B03D
:10017C0000AF7860124B1A68124B1B7819464FF47B
:10018C007A73B3FBF1F3B2FBF3F3184600F037F9D3
:10019C000346002B01D001230EE07B680F2B0AD8FD
:1001AC00002279684FF0FF3000F0FFF8064A7B68B8
:1001BC001360002300E0012318460837BD4680BDBC
:1001CC0008000020040000200000002080B400AFD4
:1001DC00054B1B781A46054B1B681344034A1360E6
:1001EC0000BFBD4680BC704704000020C80A002038
:1001FC0080B400AF024B1B681846BD4680BC7047EC
:10020C00C80A002080B485B000AF78607B6803F02A
:10021C000703FB600C4BDB68BB60BA684FF6FF034F
:10022C001340BB60FB681A02BB68134343F0BF6307
:10023C0043F40033BB60044ABB68D36000BF14377F
:10024C00BD4680BC704700BF00ED00E080B400AF3D
:10025C00044BDB681B0A03F007031846BD4680BC41
:10026C00704700BF00ED00E080B483B000AF0346E0
:10027C00FB71FB7903F01F02064997F907305B0904
:10028C00012000FA02F241F8232000BF0C37BD46D2
:10029C0080BC704700E100E080B483B000AF03463F
:1002AC003960FB7197F90730002B0BDA3B68DAB237
:1002BC000C49FB7903F00F03043B1201D2B20B443F
:1002CC001A7609E03B68DAB2074997F90730120150
:1002DC00D2B20B4483F8002300BF0C37BD4680BC60
:1002EC00704700BF00ED00E000E100E080B489B091
:1002FC0000AFF860B9607A60FB6803F00703FB613C
:10030C00FB69C3F10703042B28BF0423BB61FB6902
:10031C000433062B02D9FB69033B00E000237B610D
:10032C004FF0FF32BB6902FA03F3DA43BB681A40A1
:10033C007B699A404FF0FF317B6901FA03F3D94393
:10034C007B680B40134318462437BD4680BC70476E
:10035C0080B582B000AF78607B68013BB3F1807FE1
:10036C0001D301230FE00A4A7B68013B53600F2144
:10037C004FF0FF30FFF790FF054B00229A60044BC3
:10038C0007221A60002318460837BD4680BD00BFFF
:10039C0010E000E080B582B000AF78607868FFF7BD
:1003AC0031FF00BF0837BD4680BD80B586B000AFB9
:1003BC000346B9607A60FB7300237B61FFF746FF4D
:1003CC0078617A68B9687869FFF790FF024697F907
:1003DC000F3011461846FFF75FFF00BF1837BD46B8
:1003EC0080BD80B582B000AF0346FB7197F9073032
:1003FC001846FFF739FF00BF0837BD4680BD80B5F2
:10040C0082B000AF78607868FFF7A2FF0346184609
:10041C000837BD4680BD000080B485B000AF786061
:10042C000023FB607B68002B01D1012343E07B6838
:10043C001B681A46224B1344224AA2FB03231B09B6
:10044C009A007B681A647B681F4ADA637B68022215
:10045C0083F821207B681B681B68FB60FB6823F416
:10046C007F5323F03003FB607B685A687B689B6882
:10047C001A437B68DB681A437B681B691A437B68E9
:10048C005B691A437B689B691A437B68DB6913437E
:10049C00FA681343FB607B681B68FA681A607B6818
:1004AC0000229A637B68012283F821207B6800225A
:1004BC0083F82020002318461437BD4680BC7047B3
:1004CC00F8FFFDBFCDCCCCCC0000024080B586B08F
:1004DC0000AFF860B9607A603B600023FB75FB6885
:1004EC0093F82030012B01D102234AE0FB68012252
:1004FC0083F82020FB6893F82130012B3AD1FB685C
:10050C00022283F82120FB6800229A63FB681B6897
:10051C001A68FB681B6822F001021A603B687A6853
:10052C00B968F86800F0AEF9FB68DB6A002B08D0FC
:10053C00FB681B681A68FB681B6842F00E021A60A5
:10054C000FE0FB681B681A68FB681B6822F004024A
:10055C001A60FB681B681A68FB681B6842F00A0289
:10056C001A60FB681B681A68FB681B6842F0010282
:10057C001A6005E0FB68002283F820200223FB753B
:10058C00FB7D18461837BD4680BD000080B584B091
:10059C0000AF78600023FB737B6893F82130022B4B
:1005AC0005D07B6804229A630123FB7351E07B68BE
:1005BC001B681A687B681B6822F00E021A607B6845
:1005CC001B681A687B681B6822F001021A607B6842
:1005DC001B68224A934229D07B681B68204A9342AD
:1005EC0022D07B681B681F4A93421AD07B681B6819
:1005FC001D4A934212D07B681B681C4A93420AD056
:10060C007B681B681A4A934202D14FF480130EE0A8
:10061C004FF080730BE04FF4803308E04FF48053BD
:10062C0005E04FF4807302E0102300E00123114A2F
:10063C0053607B68012283F821207B68002283F8B9
:10064C0020207B685B6B002B03D07B685B6B78682E
:10065C009847FB7B18461037BD4680BD080002400A
:10066C001C0002403000024044000240580002408E
:10067C006C0002400000024080B584B000AF78608E
:10068C007B68DB6B1B68FB607B681B681B68BB6053
:10069C007B681B6C04229A40FB681340002B4FD0E4
:1006AC00BB6803F00403002B4AD07B681B681B68F3
:1006BC0003F02003002B07D17B681B681A687B684A
:1006CC001B6822F004021A607B681B68664A93421E
:1006DC0029D07B681B68654A934222D07B681B68D3
:1006EC00634A93421AD07B681B68624A934212D0C9
:1006FC007B681B68604A93420AD07B681B685F4A20
:10070C00934202D14FF480030EE04FF080630BE074
:10071C004FF4802308E04FF4804305E04FF48063EE
:10072C0002E0402300E00423554A53607B68DB6AF7
:10073C00002B00F094807B68DB6A786898478EE029
:10074C007B681B6C02229A40FB681340002B56D02E
:10075C00BB6803F00203002B51D07B681B681B683D
:10076C0003F02003002B0BD17B681B681A687B6895
:10077C001B6822F00A021A607B68012283F8212090
:10078C007B681B68384A934229D07B681B68374AC0
:10079C00934222D07B681B68354A93421AD07B68FF
:1007AC001B68344A934212D07B681B68324A9342CE
:1007BC000AD07B681B68314A934202D14FF4001374
:1007CC000EE04FF000730BE04FF4003308E04FF4F1
:1007DC00005305E04FF4007302E0202300E00223F5
:1007EC00274A53607B68002283F820207B689B6A31
:1007FC00002B34D07B689B6A786898472FE07B6825
:10080C001B6C08229A40FB681340002B28D0BB6855
:10081C0003F00803002B23D07B681B681A687B68E5
:10082C001B6822F00E021A607B681A6C7B68DB6B0B
:10083C00012101FA02F25A607B6801229A637B68FB
:10084C00012283F821207B68002283F820207B681A
:10085C001B6B002B04D07B681B6B7868984700BF20
:10086C0000BF1037BD4680BD080002401C0002408E
:10087C003000024044000240580002406C0002402C
:10088C000000024080B485B000AFF860B9607A60B7
:10089C003B60FB681A6CFB68DB6B012101FA02F20E
:1008AC005A60FB681B683A685A60FB685B68102BDF
:1008BC0008D1FB681B687A689A60FB681B68BA6889
:1008CC00DA6007E0FB681B68BA689A60FB681B6813
:1008DC007A68DA6000BF1437BD4680BC70470000F0
:1008EC0080B48BB000AF786039600023FB610023CB
:1008FC00BB6100237B6100233B6200233B6100232F
:10090C007B6227E101227B6A02FA03F3FB613B68FD
:10091C001B68FA691340BB61BA69FB699A4240F0E3
:10092C0016813B685B68122B34D0122B0DD8022B2E
:10093C002BD0022B04D8002B31D0012B1CD048E03B
:10094C00032B43D0112B1BD043E0874A934226D074
:10095C00854A934206D8854A934220D0844A9342D2
:10096C001DD036E0834A934219D0834A934216D065
:10097C00824A934213D02CE03B68DB683B6228E050
:10098C003B68DB6804333B6223E03B68DB6808337D
:10099C003B621EE03B68DB680C333B6219E03B6852
:1009AC009B68002B02D104233B6212E03B689B68DE
:1009BC00012B05D108233B627B68FA691A6108E0B8
:1009CC0008233B627B68FA695A6102E000233B62B0
:1009DC0000BFBB69FF2B01D87B6801E07B68043347
:1009EC00FB60BB69FF2B02D87B6A9B0002E07B6A31
:1009FC00083B9B003B61FB681A680F213B6901FABD
:100A0C0003F3DB431A40396A3B6901FA03F31A43D7
:100A1C00FB681A603B685B6803F08053002B00F0A6
:100A2C009680574B9B69564A43F001039361544B94
:100A3C009B6903F00103BB60BB68524A7B6A9B084D
:100A4C00023352F823307B617B6A03F003039B0073
:100A5C000F2202FA03F3DB437A6913407B617B6854
:100A6C00494A934213D07B68484A93420DD07B6825
:100A7C00474A934207D07B68464A934201D10323ED
:100A8C0006E0042304E0022302E0012300E000233B
:100A9C007A6A02F00302920093407A6913437B61F5
:100AAC0038497B6A9B0802337A6941F823203B68FA
:100ABC005B6803F48033002B06D0374B1A68364939
:100ACC00BB6913430B6006E0334B1A68BB69DB430D
:100ADC00314913400B603B685B6803F40033002B17
:100AEC0006D02D4B5A682C49BB6913434B6006E06A
:100AFC00294B5A68BB69DB43274913404B603B6861
:100B0C005B6803F48013002B06D0234B9A682249B0
:100B1C00BB6913438B6006E01F4B9A68BB69DB43D0
:100B2C001D4913408B603B685B6803F40013002B7A
:100B3C0006D0194BDA681849BB691343CB6006E041
:100B4C00154BDA68BB69DB4313491340CB607B6AF6
:100B5C0001337B627B6A0F2B7FF6D4AE00BF2C3740
:100B6C00BD4680BC704700BF000021100000111072
:100B7C000000121000003110000032100000221092
:100B8C00001002400000014000080140000C014030
:100B9C0000100140001401400004014080B483B0F7
:100BAC0000AF78600B467B8013467B707B78002B04
:100BBC0003D07A887B681A6103E07B881A047B680F
:100BCC001A6100BF0C37BD4680BC704780B586B03B
:100BDC0000AF786000233B617B681B6803F0010366
:100BEC00002B00F08780924B5B6803F00C03042B06
:100BFC000CD08F4B5B6803F00C03082B12D18C4B81
:100C0C005B6803F48033B3F5803F0BD1884B1B68D2
:100C1C0003F40033002B6CD07B685B68002B68D12D
:100C2C0001232DE27B685B68B3F5803F06D1804BD6
:100C3C001B687F4A43F4803313602EE07B685B684B
:100C4C00002B0CD17A4B1B68794A23F48033136048
:100C5C00774B1B68764A23F4802313601DE07B6876
:100C6C005B68B3F5A02F0CD1714B1B68704A43F431
:100C7C00802313606E4B1B686D4A43F48033136002
:100C8C000BE06B4B1B686A4A23F480331360684B90
:100C9C001B68674A23F4802313607B685B68002B16
:100CAC0013D0FFF7A5FA386108E0FFF7A1FA024666
:100CBC003B69D31A642B01D90323E1E15C4B1B681C
:100CCC0003F40033002BF0D014E0FFF791FA3861F5
:100CDC0008E0FFF78DFA02463B69D31A642B01D961
:100CEC000323CDE1524B1B6803F40033002BF0D1EE
:100CFC0000E000BF7B681B6803F00203002B63D08D
:100D0C004B4B5B6803F00C03002B0BD0484B5B6820
:100D1C0003F00C03082B1CD1454B5B6803F48033A8
:100D2C00002B16D1424B1B6803F00203002B05D09D
:100D3C007B681B69012B01D00123A1E13C4B1B6893
:100D4C0023F0F8027B685B69DB00394913430B60C5
:100D5C003AE07B681B69002B20D0364B01221A60CD
:100D6C00FFF746FA386108E0FFF742FA02463B69A2
:100D7C00D31A022B01D9032382E12D4B1B6803F0FC
:100D8C000203002BF0D02A4B1B6823F0F8027B687F
:100D9C005B69DB00264913430B6015E0254B0022F1
:100DAC001A60FFF725FA386108E0FFF721FA0246CE
:100DBC003B69D31A022B01D9032361E11C4B1B683D
:100DCC0003F00203002BF0D17B681B6803F00803CF
:100DDC00002B39D07B689B69002B19D0164B012254
:100DEC001A60FFF705FA386108E0FFF701FA0246CE
:100DFC003B69D31A022B01D9032341E10C4B5B6AEB
:100E0C0003F00203002BF0D0012000F0E3FA1BE00A
:100E1C00094B00221A60FFF7EBF938610EE0FFF77F
:100E2C00E7F902463B69D31A022B07D9032327E1C2
:100E3C00001002400000424280044242924B5B6A26
:100E4C0003F00203002BEAD17B681B6803F0040358
:100E5C00002B00F0A6800023FB758B4BDB6903F0A5
:100E6C008053002B0DD1884BDB69874A43F08053AC
:100E7C00D361854BDB6903F08053FB60FB68012376
:100E8C00FB75824B1B6803F48073002B18D17F4BCE
:100E9C001B687E4A43F480731360FFF7A9F938612D
:100EAC0008E0FFF7A5F902463B69D31A642B01D978
:100EBC000323E5E0754B1B6803F48073002BF0D023
:100ECC007B68DB68012B06D16F4B1B6A6E4A43F0C3
:100EDC00010313622DE07B68DB68002B0CD16A4B9D
:100EEC001B6A694A23F001031362674B1B6A664A4B
:100EFC0023F0040313621CE07B68DB68052B0CD128
:100F0C00614B1B6A604A43F0040313625E4B1B6A1D
:100F1C005D4A43F0010313620BE05B4B1B6A5A4AB8
:100F2C0023F001031362584B1B6A574A23F0040346
:100F3C0013627B68DB68002B15D0FFF759F9386119
:100F4C000AE0FFF755F902463B69D31A41F28832A1
:100F5C00934201D9032393E04B4B1B6A03F002032A
:100F6C00002BEED014E0FFF743F938610AE0FFF7ED
:100F7C003FF902463B69D31A41F28832934201D9B8
:100F8C0003237DE0404B1B6A03F00203002BEED1E0
:100F9C00FB7D012B05D13C4BDB693B4A23F0805395
:100FAC00D3617B68DB69002B69D0374B5B6803F03E
:100FBC000C03082B61D07B68DB69022B46D1344BC8
:100FCC0000221A60FFF714F9386108E0FFF710F9F6
:100FDC0002463B69D31A022B01D9032350E02A4B5A
:100FEC001B6803F00073002BF0D17B681B6AB3F510
:100FFC00803F08D1244B5B6823F400327B689B68EC
:10100C00214913434B60204B5B6823F474127B68BB
:10101C00196A7B685B6A0B431B4913434B601C4B7F
:10102C0001221A60FFF7E4F8386108E0FFF7E0F8F6
:10103C0002463B69D31A022B01D9032320E0124B41
:10104C001B6803F00073002BF0D018E0104B00224B
:10105C001A60FFF7CDF8386108E0FFF7C9F80246CF
:10106C003B69D31A022B01D9032309E0064B1B68F9
:10107C0003F00073002BF0D101E0012300E000230A
:10108C0018461837BD4680BD001002400070004065
:10109C006000424280B584B000AF786039600023B4
:1010AC00FB607E4B1B6803F007033A689A4210D929
:1010BC007A4B1B6823F0070278493B6813430B609B
:1010CC00764B1B6803F007033A689A4201D0012360
:1010DC00E0E07B681B6803F00203002B20D07B68E8
:1010EC001B6803F00403002B05D06D4B5B686C4A46
:1010FC0043F4E06353607B681B6803F00803002B28
:10110C0005D0674B5B68664A43F460535360644B8D
:10111C005B6823F0F0027B689B68614913434B606A
:10112C007B681B6803F00103002B6AD07B685B684B
:10113C00012B07D15A4B1B6803F40033002B15D13C
:10114C000123A7E07B685B68022B07D1544B1B681B
:10115C0003F00073002B09D101239BE0504B1B685B
:10116C0003F00203002B01D1012393E04C4B5B688D
:10117C0023F003027B685B68494913434B60FFF71C
:10118C0037F8F8607B685B68012B12D10AE0FFF737
:10119C002FF80246FB68D31A41F28832934201D9E8
:1011AC00032377E03E4B5B6803F00C03042BEED17A
:1011BC0027E07B685B68022B1DD10AE0FFF718F86B
:1011CC000246FB68D31A41F28832934201D90323B9
:1011DC0060E0334B5B6803F00C03082BEED110E09E
:1011EC00FFF706F80246FB68D31A41F288329342A5
:1011FC0001D903234EE02A4B5B6803F00C03002B50
:10120C00EED1264B1B6803F007033A689A4210D2C2
:10121C00224B1B6823F0070220493B6813430B60E9
:10122C001E4B1B6803F007033A689A4201D0012356
:10123C0030E07B681B6803F00403002B08D0184BCC
:10124C005B6823F4E0627B68DB68154913434B60F1
:10125C007B681B6803F00803002B09D0104B5B68FC
:10126C0023F460527B681B69DB000D4913434B6010
:10127C0000F01CF801460A4B5B681B0903F00F03D6
:10128C00084AD35C21FA03F3074A13600020FEF7E7
:10129C006DFF002318461037BD4680BD002002406C
:1012AC00001002400C3100080800002090B48AB0F5
:1012BC0000AF2A4B3C1D0FCB84E80F00284B1B883A
:1012CC003B800023FB610023BB6100237B62002376
:1012DC007B6100233B62234B5B68FB61FB6903F082
:1012EC000C03042B02D0082B03D02DE01E4B3B62C9
:1012FC002DE0FB699B0C03F00F0307F1280213444C
:10130C0013F8243C7B61FB6903F48033002B13D06E
:10131C00144B5B685B0C03F0010307F128021344C8
:10132C0013F8283CBB617B690F4A02FB03F2BB69D3
:10133C00B2FBF3F37B6204E07B690C4A02FB03F320
:10134C007B627B6A3B6202E0074B3B6200BF3B6AFD
:10135C0018462837BD4690BC704700BFF8300008CF
:10136C00083100080010024000127A0000093D000C
:10137C0080B400AF024B1B681846BD4680BC70475A
:10138C000800002080B500AFFFF7F2FF0146054BC7
:10139C005B681B0A03F00703034AD35C21FA03F3CF
:1013AC00184680BD001002401C31000880B500AF0B
:1013BC00FFF7DEFF0146054B5B68DB0A03F0070312
:1013CC00034AD35C21FA03F3184680BD0010024097
:1013DC001C31000880B485B000AF78600A4B1B68E4
:1013EC000A4AA2FB03235B0A7A6802FB03F3FB6045
:1013FC0000BFFB685A1EFA60002BF9D100BF1437EE
:10140C00BD4680BC704700BF08000020D34D621061
:10141C0080B582B000AF78607B68002B01D10123CE
:10142C001DE07B6893F83D30DBB2002B06D17B6866
:10143C00002283F83C20786801F0B4FB7B68022220
:10144C0083F83D207B681A687B6804331946104684
:10145C0000F02AFA7B68012283F83D20002318460D
:10146C000837BD4680BD000080B582B000AF786003
:10147C0039607B681B6801223968184600F01AFC39
:10148C007B681B680B4A934207D17B681B685A6CBC
:10149C007B681B6842F400425A647B681B681A68BC
:1014AC007B681B6842F001021A600023184608375B
:1014BC00BD4680BD002C014080B584B000AFF86003
:1014CC00B9607A607B80FB6893F83D30DBB2022B0D
:1014DC0001D10223BCE0FB6893F83D30DBB2012B59
:1014EC000BD17B68002B04D17B88002B01D001230E
:1014FC00AEE0FB68022283F83D20BB680C2B00F2A7
:10150C00898001A252F823F0491500082116000821
:10151C0021160008211600087F1500082116000866
:10152C002116000821160008B51500082116000820
:10153C002116000821160008EB150008FB685B6AF1
:10154C00454A9A62FB685B6A444A1A63FB68586AAC
:10155C007968FB681B6834331A467B88FEF7B6FF44
:10156C00FB681B68DA68FB681B6842F40072DA607F
:10157C0051E0FB689B6A384A9A62FB689B6A374A5F
:10158C001A63FB68986A7968FB681B6838331A46DB
:10159C007B88FEF79BFFFB681B68DA68FB681B689F
:1015AC0042F48062DA6036E0FB68DB6A2A4A9A62AF
:1015BC00FB68DB6A294A1A63FB68D86A7968FB689E
:1015CC001B683C331A467B88FEF780FFFB681B6860
:1015DC00DA68FB681B6842F40062DA601BE0FB68A7
:1015EC001B6B1D4A9A62FB681B6B1C4A1A63FB68D7
:1015FC00186B7968FB681B6840331A467B88FEF7CA
:10160C0065FFFB681B68DA68FB681B6842F4805254
:10161C00DA6000E000BFFB681B680122B96818465D
:10162C0000F048FBFB681B680D4A934207D1FB682E
:10163C001B685A6CFB681B6842F400425A64FB68D6
:10164C001B681A68FB681B6842F001021A600023D1
:10165C0018461037BD4680BD4518000821180008F3
:10166C00002C014080B584B000AFF860B9607A609E
:10167C00FB6893F83C30012B01D10223B4E0FB68EA
:10168C00012283F83C20FB68022283F83D207B6812
:10169C000C2B00F29F8001A252F823F0DD160008FB
:1016AC00E1170008E1170008E11700081D170008F2
:1016BC00E1170008E1170008E11700085F170008A0
:1016CC00E1170008E1170008E11700089F17000850
:1016DC00FB681B68B968184600F04CF9FB681B687E
:1016EC009A69FB681B6842F008029A61FB681B68E8
:1016FC009A69FB681B6822F004029A61FB681B68FC
:10170C009969BB681A69FB681B680A439A6162E0B5
:10171C00FB681B68B968184600F098F9FB681B68F1
:10172C009A69FB681B6842F400629A61FB681B684B
:10173C009A69FB681B6822F480629A61FB681B68DB
:10174C009969BB681B691A02FB681B680A439A619A
:10175C0041E0FB681B68B968184600F0E7F9FB68C4
:10176C001B68DA69FB681B6842F00802DA61FB68E7
:10177C001B68DA69FB681B6822F00402DA61FB68FB
:10178C001B68D969BB681A69FB681B680A43DA6174
:10179C0021E0FB681B68B968184600F037FAFB6853
:1017AC001B68DA69FB681B6842F40062DA61FB684B
:1017BC001B68DA69FB681B6822F48062DA61FB68DB
:1017CC001B68D969BB681B691A02FB681B680A4352
:1017DC00DA6100E000BFFB68012283F83D20FB6862
:1017EC00002283F83C20002318461037BD4680BDEC
:1017FC0080B483B000AF786000BF0C37BD4680BCAE
:10180C00704780B483B000AF786000BF0C37BD4622
:10181C0080BC704780B584B000AF78607B685B6A31
:10182C00FB60FB68012283F83D20F868FFF7E9FFB5
:10183C0000BF1037BD4680BD80B584B000AF786066
:10184C007B685B6AFB60FB68012283F83D20FB68C8
:10185C005B6A7A689A4203D1FB6801221A7719E015
:10186C00FB689B6A7A689A4203D1FB6802221A775A
:10187C0010E0FB68DB6A7A689A4203D1FB680422A9
:10188C001A7707E0FB681B6B7A689A4202D1FB68F7
:10189C0008221A77F868FFF7ABFFFB6800221A776B
:1018AC0000BF1037BD4680BD80B485B000AF7860F6
:1018BC0039600023FB607B681B68FB607B682A4AED
:1018CC0093420BD07B68B3F1804F07D07B68274ADB
:1018DC00934203D07B68264A934208D1FB6823F0DD
:1018EC007003FB603B685B68FA681343FB607B68C2
:1018FC001D4A93420BD07B68B3F1804F07D07B68B5
:10190C001A4A934203D07B68194A934208D1FB6868
:10191C0023F44073FB603B68DB68FA681343FB609D
:10192C00FB6823F08003FB603B685B69FA68134338
:10193C00FB607B68FA681A603B689A687B68DA62BD
:10194C003B681A687B689A627B68074A934203D1AA
:10195C003B681A697B681A637B6801225A6100BF75
:10196C001437BD4680BC7047002C01400004004079
:10197C000008004080B487B000AF78603960002365
:10198C00FB6000237B6100233B617B681B6A23F0B7
:10199C0001027B681A627B681B6A7B617B685B68EF
:1019AC003B617B689B69FB60FB6823F07003FB6009
:1019BC00FB6823F00303FB603B681B68FA68134366
:1019CC00FB607B6923F002037B613B689B687A694F
:1019DC0013437B617B681C4A93420CD17B6923F0D7
:1019EC0008037B613B68DB687A6913437B617B6925
:1019FC0023F004037B617B68134A934211D13B694A
:101A0C0023F480733B613B6923F400733B613B68B7
:101A1C005B693A6913433B613B689B693A691343C1
:101A2C003B617B683A695A607B68FA689A613B68EB
:101A3C005A687B685A637B687A691A6200BF1C37E4
:101A4C00BD4680BC704700BF002C014080B487B0FD
:101A5C0000AF786039600023FB6000237B610023BA
:101A6C003B617B681B6A23F010027B681A627B68FF
:101A7C001B6A7B617B685B683B617B689B69FB6075
:101A8C00FB6823F4E043FB60FB6823F44073FB60CA
:101A9C003B681B681B02FA681343FB607B6923F0ED
:101AAC0020037B613B689B681B017A6913437B6154
:101ABC007B681D4A93420DD17B6923F080037B61C7
:101ACC003B68DB681B017A6913437B617B6923F0FC
:101ADC0040037B617B68144A934213D13B6923F426
:101AEC0080633B613B6923F400633B613B685B694A
:101AFC009B003A6913433B613B689B699B003A69C5
:101B0C0013433B617B683A695A607B68FA689A6157
:101B1C003B685A687B689A637B687A691A6200BF73
:101B2C001C37BD4680BC7047002C014080B487B088
:101B3C0000AF786039600023FB6000237B610023D9
:101B4C003B617B681B6A23F480727B681A627B683A
:101B5C001B6A7B617B685B683B617B68DB69FB6054
:101B6C00FB6823F07003FB60FB6823F00303FB604E
:101B7C003B681B68FA681343FB607B6923F40073B2
:101B8C007B613B689B681B027A6913437B617B68B2
:101B9C001D4A93420DD17B6923F400637B613B6842
:101BAC00DB681B027A6913437B617B6923F48063D6
:101BBC007B617B68144A934213D13B6923F48053B5
:101BCC003B613B6923F400533B613B685B691B0140
:101BDC003A6913433B613B689B691B013A691343A8
:101BEC003B617B683A695A607B68FA68DA613B68EA
:101BFC005A687B68DA637B687A691A6200BF1C37A3
:101C0C00BD4680BC704700BF002C014080B487B03B
:101C1C0000AF7860396000233B610023FB60002338
:101C2C007B617B681B6A23F480527B681A627B6839
:101C3C001B6AFB607B685B687B617B68DB693B6173
:101C4C003B6923F4E0433B613B6923F440733B6104
:101C5C003B681B681B023A6913433B61FB6823F426
:101C6C000053FB603B689B681B03FA681343FB60E3
:101C7C007B680F4A934209D17B6923F480437B61D3
:101C8C003B685B699B017A6913437B617B687A696A
:101C9C005A607B683A69DA613B685A687B681A64F7
:101CAC007B68FA681A6200BF1C37BD4680BC70475F
:101CBC00002C014080B487B000AFF860B9607A6046
:101CCC0000237B610122BB6802FA03F37B61FB6892
:101CDC001A6A7B69DB431A40FB681A62FB681A6A52
:101CEC007968BB6801FA03F31A43FB681A6200BFF8
:101CFC001C37BD4680BC704780B485B000AF78609F
:101D0C0039600023FB607B6893F83C30012B01D1D8
:101D1C00022344E07B68012283F83C20FB6823F01B
:101D2C00FF023B68DB681343FB60FB6823F44072E3
:101D3C003B689B681343FB60FB6823F480623B6841
:101D4C005B681343FB60FB6823F400623B681B6811
:101D5C001343FB60FB6823F480523B681B691343FD
:101D6C00FB60FB6823F400523B685B691343FB6028
:101D7C00FB6823F480423B689B691343FB60FB6860
:101D8C0023F400423B689B691343FB607B681B6830
:101D9C00FA685A647B68002283F83C2000231846BA
:101DAC001437BD4680BC704780B483B000AF7860F8
:101DBC0039607B6893F83C30012B01D1022332E06F
:101DCC007B68012283F83C207B68022283F83D204B
:101DDC007B681B685A687B681B6822F070025A602B
:101DEC007B681B6859683B681A687B681B680A43E8
:101DFC005A607B681B689A687B681B6822F08002BB
:101E0C009A607B681B6899683B685A687B681B689A
:101E1C000A439A607B68012283F83D207B6800228C
:101E2C0083F83C20002318460C37BD4680BC704715
:101E3C0080B582B000AF78607B68002B01D10123A4
:101E4C003FE07B6893F83930DBB2002B06D17B681E
:101E5C00002283F83820786800F052FF7B68242237
:101E6C0083F839207B681B68DA687B681B6822F46E
:101E7C000052DA60786800F0ABFA7B681B681A696C
:101E8C007B681B6822F490421A617B681B685A6954
:101E9C007B681B6822F02A025A617B681B68DA682F
:101EAC007B681B6842F40052DA607B680022DA63BC
:101EBC007B68202283F839207B68202283F83A2023
:101ECC00002318460837BD4680BD80B485B000AFEE
:101EDC00F860B9601346FB80FB6893F83A30DBB2CC
:101EEC00202B40D1BB68002B02D0FB88002B01D1EA
:101EFC00012339E0FB6893F83830012B01D1022320
:101F0C0032E0FB68012283F83820FB68BA689A62D9
:101F1C00FB68FA889A85FB68FA88DA85FB680022E8
:101F2C00DA63FB68222283F83A20FB68002283F8EC
:101F3C003820FB681B68DA68FB681B6842F4807207
:101F4C00DA60FB681B685A69FB681B6842F0010287
:101F5C005A61FB681B68DA68FB681B6842F0200258
:101F6C00DA60002300E0022318461437BD4680BC1B
:101F7C007047000080B588B000AF78607B681B6844
:101F8C001B68FB617B681B68DB68BB617B681B683B
:101F9C005B697B6100233B610023FB60FB6903F001
:101FAC000F033B613B69002B0DD1FB6903F0200350
:101FBC00002B08D0BB6903F02003002B03D07868FA
:101FCC0000F084F9CCE03B69002B00F0AB807B691E
:101FDC0003F00103002B05D1BB6903F49073002BB4
:101FEC0000F0A080FB6903F00103002B0AD0BB6951
:101FFC0003F48073002B05D07B68DB6B43F001028C
:10200C007B68DA63FB6903F00403002B0AD07B695D
:10201C0003F00103002B05D07B68DB6B43F002025D
:10202C007B68DA63FB6903F00203002B0AD07B693F
:10203C0003F00103002B05D07B68DB6B43F004023B
:10204C007B68DA63FB6903F00803002B0AD07B6919
:10205C0003F00103002B05D07B68DB6B43F0080217
:10206C007B68DA637B68DB6B002B78D0FB6903F051
:10207C002003002B07D0BB6903F02003002B02D0F8
:10208C00786800F023F97B681B685B6903F04003F8
:10209C00002B14BF01230023DBB2FB607B68DB6BDE
:1020AC0003F00803002B02D1FB68002B31D07868B9
:1020BC0000F06EF87B681B685B6903F04003002B33
:1020CC0023D07B681B685A697B681B6822F040022E
:1020DC005A617B685B6B002B13D07B685B6B224A6D
:1020EC005A637B685B6B1846FEF750FA0346002B6D
:1020FC0016D07B685B6B5B6B7A68526B10469847AB
:10210C000EE0786800F03BF80AE0786800F037F8E9
:10211C0006E0786800F033F87B680022DA631EE092
:10212C0000BF1CE0FB6903F08003002B08D0BB69E7
:10213C0003F08003002B03D0786800F05AF80FE00E
:10214C00FB6903F04003002B0AD0BB6903F040038A
:10215C00002B05D0786800F0A1F800BF00E000BFAC
:10216C002037BD4680BD00BFD721000880B483B0A6
:10217C0000AF786000BF0C37BD4680BC704780B4A0
:10218C0083B000AF786000BF0C37BD4680BC704791
:10219C0080B483B000AF78607B681B68DA687B68BA
:1021AC001B6822F49072DA607B681B685A697B6842
:1021BC001B6822F001025A617B68202283F83A20C6
:1021CC0000BF0C37BD4680BC704780B584B000AFF3
:1021DC0078607B685B6AFB60FB680022DA85FB68D1
:1021EC000022DA84F868FFF7CAFF00BF1037BD463B
:1021FC0080BD80B485B000AF78607B6893F83930CF
:10220C00DBB2212B44D17B689B68B3F5805F1AD17C
:10221C007B681B6AFB60FB681B881A467B681B6823
:10222C00C2F308025A607B681B69002B05D17B68DE
:10223C001B6A9A1C7B681A620EE07B681B6A5A1C2C
:10224C007B681A6208E07B681B6A591C7A68116209
:10225C001A787B681B685A607B68DB8C9BB2013BED
:10226C009BB27A681946D184002B0FD17B681B680E
:10227C00DA687B681B6822F08002DA607B681B6876
:10228C00DA687B681B6842F04002DA60002300E0E9
:10229C00022318461437BD4680BC704780B582B007
:1022AC0000AF78607B681B68DA687B681B6822F07B
:1022BC004002DA607B68202283F839207868FFF7C7
:1022CC0055FF002318460837BD4680BD80B584B045
:1022DC0000AF78607B6893F83A30DBB2222B71D177
:1022EC007B689B68B3F5805F23D17B689B6AFB603E
:1022FC007B681B69002B0ED17B681B685B689BB2EB
:10230C00C3F308039AB2FB681A807B689B6A9A1C19
:10231C007B689A6229E07B681B685B689BB2DBB2C6
:10232C009AB2FB681A807B689B6A5A1C7B689A621B
:10233C001BE07B681B69002B0AD17B681B68586803
:10234C007B689B6A591C7A689162C2B21A700CE065
:10235C007B681B685B68DAB27B689B6A581C79687F
:10236C00886202F07F02D2B21A707B68DB8D9BB25E
:10237C00013B9BB27A681946D185002B20D17B6832
:10238C001B68DA687B681B6822F02002DA607B68C5
:10239C001B68DA687B681B6822F48072DA607B68E1
:1023AC001B685A697B681B6822F001025A617B68C2
:1023BC00202283F83A20786800F074FB002302E0B6
:1023CC00002300E0022318461037BD4680BD0000F4
:1023DC00B0B584B000AF78600023FB607B681B68ED
:1023EC001B6923F440517B68DA687B681B680A43DD
:1023FC001A617B689A687B681B691A437B685B6906
:10240C001343FA681343FB607B681B68DB6823F497
:10241C00B05323F00C037A681268F9680B43D3604D
:10242C007B681B685B6923F440717B689A697B68E5
:10243C001B680A435A617B681B686F4A93426BD1D5
:10244C00FEF7B4FF024613469B0013449A001A444D
:10245C007B685B689B00B2FBF3F3684AA2FB032327
:10246C005B091C01FEF7A2FF024613469B001344B6
:10247C009A001A447B685B689B00B2FBF3F5FEF78D
:10248C0095FF024613469B0013449A001A447B683E
:10249C005B689B00B2FBF3F3584AA2FB03235B0976
:1024AC00642202FB03F3EB1A1B013233534AA2FBE7
:1024BC0003235B0903F0F0031C44FEF777FF02468D
:1024CC0013469B0013449A001A447B685B689B007C
:1024DC00B2FBF3F5FEF76AFF024613469B0013446A
:1024EC009A001A447B685B689B00B2FBF3F3434A87
:1024FC00A2FB03235B09642202FB03F3EB1A1B010F
:10250C0032333E4AA2FB03235B0903F00F027B68C4
:10251C001B6822449A606AE0FEF734FF02461346B9
:10252C009B0013449A001A447B685B689B00B2FBC7
:10253C00F3F3324AA2FB03235B091C01FEF722FFD3
:10254C00024613469B0013449A001A447B685B684E
:10255C009B00B2FBF3F5FEF715FF024613469B00FA
:10256C0013449A001A447B685B689B00B2FBF3F33C
:10257C00224AA2FB03235B09642202FB03F3EB1A3E
:10258C001B0132331D4AA2FB03235B0903F0F0034A
:10259C001C44FEF7F7FE024613469B0013449A00B8
:1025AC001A447B685B689B00B2FBF3F5FEF7EAFE0E
:1025BC00024613469B0013449A001A447B685B68DE
:1025CC009B00B2FBF3F30D4AA2FB03235B096422CD
:1025DC0002FB03F3EB1A1B013233084AA2FB032361
:1025EC005B0903F00F027B681B6822449A6000BFF2
:1025FC001037BD46B0BD00BF003801401F85EB5100
:10260C0080B582B000AFFDF79BFD00F087F800F0BD
:10261C00FDF900F0DDF900F0C7F800F04BF900F01F
:10262C00ADF900233B6000237B60082000F02EFCFA
:10263C00012235493548FFF748FC00213448FEF7A4
:10264C0013FF04213248FEF70FFF314B1B68962213
:10265C005A632F4B1B68AA229A63FDF7C9FD386099
:10266C00012229492948FFF730FC3A687B68D31AC4
:10267C00322BF2D9274B1B78012B22D1264B1B680E
:10268C000133254A1360204B1B78DB09DBB203F0C6
:10269C000103002B09D01E4B1B6840F26C725A636D
:1026AC001D4B1B68184600F019FA174B1B7803F0EA
:1026BC000103002B25D0164B1B6840F26C729A63F9
:1026CC001FE0114B1B78DB09DBB203F00103002B7D
:1026DC0004D10F4B1B6840F24C425A630A4B1B78D7
:1026EC0003F00103002B04D1094B1B6840F24C4250
:1026FC009A63094B00221A60074B1B68184600F0BE
:10270C00EDF93B687B60A8E728000020100B002047
:10271C00900B0020320000203400002080B590B0D7
:10272C0000AF07F1180328220021184600F0CAFC5C
:10273C003B1D00221A605A609A60DA601A6101230C
:10274C00BB614FF48033FB6100233B620123BB620E
:10275C0002237B634FF48033BB634FF4E013FB63C2
:10276C0007F118031846FEF731FA0346002B01D087
:10277C0000F0E0F90F237B600223BB600023FB60B9
:10278C004FF480633B6100237B613B1D02211846A3
:10279C00FEF780FC0346002B01D000F0CBF900BF04
:1027AC004037BD4680BD000080B590B000AF07F14A
:1027BC00380300221A605A6007F11C0300221A60C9
:1027CC005A609A60DA601A615A619A613B4600223B
:1027DC001A605A609A60DA601A615A619A61334BD6
:1027EC00334A1A60314B00225A60304B00229A60F7
:1027FC002E4B5D22DA602D4B00221A612B4B0022EE
:10280C005A612A4B00229A612848FEF701FE0346C2
:10281C00002B01D000F08EF90023BB630023FB6377
:10282C0007F1380319462148FFF7BEFA0346002B7F
:10283C0001D000F07FF96023FB6100233B62002391
:10284C007B620023BB620023FB6200233B630023FB
:10285C007B6307F11C03002219461448FEF702FFA4
:10286C000346002B01D000F065F900233B600023E8
:10287C007B600023BB600023FB6000233B614FF4B3
:10288C0000537B610023BB613B4619460748FFF7A9
:10289C0033FA0346002B01D000F04CF9034800F04A
:1028AC00DDF900BF4037BD4680BD00BF500B002096
:1028BC00002C014080B58AB000AF07F12003002244
:1028CC001A605A603B1D00221A605A609A60DA60E6
:1028DC001A615A619A61284B4FF080421A60264B5C
:1028EC004FF434725A60244B00229A60224B44F607
:1028FC002062DA60204B00221A611F4B00229A6181
:10290C001D48FEF785FD0346002B01D000F012F99F
:10291C0000233B6200237B6207F120031946164813
:10292C00FFF742FA0346002B01D000F003F96023B5
:10293C007B600023BB600023FB6000237B613B1D9D
:10294C00002219460C48FEF78DFE0346002B01D0E1
:10295C0000F0F0F83B1D042219460748FEF782FEF2
:10296C000346002B01D000F0E5F8034800F076F99F
:10297C0000BF2837BD4680BD900B002080B500AF4E
:10298C00114B124A1A60104B4FF416525A600E4BF0
:10299C0000229A600C4B0022DA600B4B00221A6169
:1029AC00094B0C225A61084B00229A61064B0022FB
:1029BC00DA610548FFF73CFA0346002B01D000F022
:1029CC00B9F800BF80BD00BF100B002000380140DB
:1029DC0080B582B000AF0C4B5B690B4A43F001032E
:1029EC005361094B5B6903F001037B607B68002238
:1029FC0000210C20FDF7D9FC0C20FDF7F2FC00BFE8
:102A0C000837BD4680BD00BF0010024080B588B0BD
:102A1C0000AF07F1100300221A605A609A60DA6066
:102A2C001E4B9B691D4A43F0200393611B4B9B6912
:102A3C0003F02003FB60FB68184B9B69174A43F0BB
:102A4C0004039361154B9B6903F00403BB60BB68E3
:102A5C00124B9B69114A43F0080393610F4B9B691E
:102A6C0003F008037B607B6800224FF480510C4814
:102A7C00FEF794F84FF480533B6101237B610023F4
:102A8C00BB610223FB6107F1100319460448FDF7F3
:102A9C0027FF00BF2037BD4680BD00BF001002409D
:102AAC00000C014080B483B000AF78607B681B6879
:102ABC00074A934206D1074B1B78002B02D0064BDA
:102ACC0001221A7000BF0C37BD4680BC704700BF96
:102ADC0000380140280000203200002080B584B06E
:102AEC0000AF78607B6803F00103002B0FD000234C
:102AFC00FB6008E0002300220021F86800F0E8F9F0
:102B0C00FB680133FB60FB68102BF3D90EE000234C
:102B1C00BB6008E0FF23FF22FF21B86800F0D8F962
:102B2C00BB680133BB60BB68102BF3D900BF1037F7
:102B3C00BD4680BD80B400AF00BFBD4680BC7047B1
:102B4C0080B485B000AF154B9B69144A43F0010368
:102B5C009361124B9B6903F00103BB60BB680F4B85
:102B6C00DB690E4A43F08053D3610C4BDB6903F0F5
:102B7C0080537B607B680A4B5B68FB60FB6823F0CF
:102B8C00E063FB60FB6843F00073FB60044AFB6886
:102B9C00536000BF1437BD4680BC70470010024024
:102BAC000000014080B584B000AF78607B681B6882
:102BBC00264A934234D1264B9B69254A43F4006341
:102BCC009361234B9B6903F40063FB60FB68214B0F
:102BDC00214A1A601F4B10225A601E4B00229A6029
:102BEC001C4B8022DA601B4B4FF400721A61194B9C
:102BFC004FF400625A61174B20229A61154B002248
:102C0C00DA611448FDF708FC0346002B01D0FFF7EE
:102C1C0091FF7B680F4A5A620E4A7B68536210E040
:102C2C007B681B68B3F1804F0BD1094BDB69084AF9
:102C3C0043F00103D361064BDB6903F00103BB6076
:102C4C00BB6800BF1037BD4680BD00BF002C0140E3
:102C5C0000100240CC0A00201C00024080B588B055
:102C6C0000AF786007F1100300221A605A609A6076
:102C7C00DA607B681B681F4A934219D11E4B9B6913
:102C8C001D4A43F0040393611B4B9B6903F004033F
:102C9C00FB60FB684FF480733B6102237B61022372
:102CAC00FB6107F1100319461448FDF719FE1CE0EF
:102CBC007B681B68B3F1804F17D10F4B9B690E4A91
:102CCC0043F0040393610C4B9B6903F00403BB605A
:102CDC00BB6803233B6102237B610223FB6107F189
:102CEC00100319460548FDF7FBFD00BF2037BD4614
:102CFC0080BD00BF002C01400010024000080140C4
:102D0C0080B588B000AF786007F1100300221A601C
:102D1C005A609A60DA607B681B68204A934239D10A
:102D2C001F4B9B691E4A43F4804393611C4B9B6968
:102D3C0003F48043FB60FB68194B9B69184A43F012
:102D4C0004039361164B9B6903F00403BB60BB68DF
:102D5C004FF400733B6102237B610323FB6107F19A
:102D6C00100319460F48FDF7BBFD4FF480633B6120
:102D7C0000237B610023BB6107F11003194609484E
:102D8C00FDF7AEFD002200212520FDF70EFB2520CE
:102D9C00FDF727FB00BF2037BD4680BD0038014042
:102DAC00001002400008014080B400AF00BFBD46D7
:102DBC0080BC704780B400AFFEE780B400AFFEE784
:102DCC0080B400AFFEE780B400AFFEE780B400AF84
:102DDC0000BFBD4680BC704780B400AF00BFBD468D
:102DEC0080BC704780B400AF00BFBD4680BC70474C
:102DFC0080B500AFFDF7EAF900BF80BD80B500AF2C
:102E0C000248FDF739FC00BF80BD00BFCC0A002092
:102E1C0080B500AF0248FFF7ADF800BF80BD00BF22
:102E2C00100B002080B400AF154B1B68144A43F004
:102E3C0001031360124B5A681149124B13404B603B
:102E4C000F4B1B680E4A23F0847323F480331360FA
:102E5C000B4B1B680A4A23F480231360084B5B68F6
:102E6C00074A23F4FE035360054B4FF41F029A608C
:102E7C00054B4FF000629A6000BFBD4680BC7047A6
:102E8C00001002400000FFF800ED00E080B584B0B7
:102E9C0000AF78604FF429730B4A00210B48FEF702
:102EAC000BFB0023FB6007E0074AFB68002142F89C
:102EBC002310FB680133FB60FB68632BF4DD00BF60
:102ECC001037BD4680BD00BF38000020500B0020DD
:102EDC0080B49FB000AF7860084611461A4603468E
:102EEC00FB700B46BB7013467B7000237B674AE07C
:102EFC0097F90330002B08DA7B6F9B0007F17802FF
:102F0C001344382243F82C2C07E07B6F9B0007F10D
:102F1C00780213441C2243F82C2CFB785B00FB70CA
:102F2C0097F90230002B08DA7B6F9B0007F17802CF
:102F3C001344382243F84C2C07E07B6F9B0007F1BD
:102F4C00780213441C2243F84C2CBB785B00BB70FA
:102F5C0097F90130002B08DA7B6F9B0007F17802A0
:102F6C001344382243F86C2C07E07B6F9B0007F16D
:102F7C00780213441C2243F86C2C7B785B007B702A
:102F8C007B6F01337B677B6F072BB1DD6423FB66A3
:102F9C0000233B6742E07A6813465B001344DB0076
:102FAC001A46FB6E1A443B6F1A443B6F9B0007F1A9
:102FBC0078010B4453F84C3C1C4941F822307A6898
:102FCC0013465B001344DB001A46FB6E1A443B6F3E
:102FDC00134403F108023B6F9B0007F178010B448B
:102FEC0053F82C3C114941F822307A6813465B00A7
:102FFC001344DB001A46FB6E1A443B6F134403F177
:10300C0010023B6F9B0007F178010B4453F86C3CAA
:10301C00064941F822303B6F01333B673B6F072B6E
:10302C00B9DD00BF7C37BD4680BC7047380000203E
:10303C00002103E00B4B5B58435004310A480B4B07
:10304C0042189A42F6D30A4A02E0002342F8043BA3
:10305C00084B9A42F9D3FFF7E5FE00F00FF8FFF7A3
:10306C00CFFA70472C310008000000200C00002023
:10307C000C000020D00B0020FEE7000070B50025EE
:10308C000C4E0D4CA41BA410A54209D100F022F843
:10309C0000250A4E0A4CA41BA410A54205D170BDF4
:1030AC0056F8253098470135EEE756F82530984705
:1030BC000135F2E7243100082431000824310008DE
:1030CC002831000803460244934200D1704703F8AC
:1030DC00011BF9E7F8B500BFF8BC08BC9E46704769
:0C30EC00F8B500BFF8BC08BC9E46704759
:1030F80002030405060708090A0B0C0D0E0F101031
:1031080001020000000000000000000001020304AA
:0C31180006070809000000000102030483
:04312400310100086D
:043128000D0100088D
:0C312C00100000000100000000A24A0496
:040000050800303D82
:00000001FF
